{
  "_format": "hh-sol-artifact-1",
  "contractName": "EntryPoint",
  "sourceName": "contracts/EntryPoint.sol",
  "abi": [
    {
      "inputs": [],
      "name": "ECDSAInvalidSignature",
      "type": "error"
    },
    {
      "inputs": [
        {
          "internalType": "uint256",
          "name": "length",
          "type": "uint256"
        }
      ],
      "name": "ECDSAInvalidSignatureLength",
      "type": "error"
    },
    {
      "inputs": [
        {
          "internalType": "bytes32",
          "name": "s",
          "type": "bytes32"
        }
      ],
      "name": "ECDSAInvalidSignatureS",
      "type": "error"
    },
    {
      "anonymous": false,
      "inputs": [
        {
          "indexed": true,
          "internalType": "address",
          "name": "sender",
          "type": "address"
        },
        {
          "indexed": false,
          "internalType": "bytes",
          "name": "callData",
          "type": "bytes"
        },
        {
          "indexed": false,
          "internalType": "bool",
          "name": "success",
          "type": "bool"
        }
      ],
      "name": "UserOperationExecuted",
      "type": "event"
    },
    {
      "inputs": [
        {
          "components": [
            {
              "internalType": "address",
              "name": "sender",
              "type": "address"
            },
            {
              "internalType": "uint256",
              "name": "nonce",
              "type": "uint256"
            },
            {
              "internalType": "bytes",
              "name": "callData",
              "type": "bytes"
            },
            {
              "internalType": "bytes",
              "name": "signature",
              "type": "bytes"
            }
          ],
          "internalType": "struct EntryPoint.UserOperation[]",
          "name": "ops",
          "type": "tuple[]"
        }
      ],
      "name": "handleOps",
      "outputs": [],
      "stateMutability": "nonpayable",
      "type": "function"
    },
    {
      "inputs": [
        {
          "internalType": "address",
          "name": "",
          "type": "address"
        }
      ],
      "name": "nonces",
      "outputs": [
        {
          "internalType": "uint256",
          "name": "",
          "type": "uint256"
        }
      ],
      "stateMutability": "view",
      "type": "function"
    }
  ],
  "bytecode": "0x608060405234801561001057600080fd5b50610f0d806100206000396000f3fe608060405234801561001057600080fd5b50600436106100365760003560e01c80635d8f430c1461003b5780637ecebe0014610057575b600080fd5b61005560048036038101906100509190610709565b610087565b005b610071600480360381019061006c91906107b4565b6102d0565b60405161007e91906107fa565b60405180910390f35b60005b828290508110156102cb5760008383838181106100aa576100a9610815565b5b90506020028101906100bc9190610849565b6100c590610a98565b90506100d0816102e8565b61010f576040517f08c379a000000000000000000000000000000000000000000000000000000000815260040161010690610b08565b60405180910390fd5b8060200151600080836000015173ffffffffffffffffffffffffffffffffffffffff1673ffffffffffffffffffffffffffffffffffffffff1681526020019081526020016000205414610197576040517f08c379a000000000000000000000000000000000000000000000000000000000815260040161018e90610b74565b60405180910390fd5b600080826000015173ffffffffffffffffffffffffffffffffffffffff1673ffffffffffffffffffffffffffffffffffffffff16815260200190815260200160002060008154809291906101ea90610bc3565b91905055506000816000015173ffffffffffffffffffffffffffffffffffffffff16826040015160405161021e9190610c7c565b6000604051808303816000865af19150503d806000811461025b576040519150601f19603f3d011682016040523d82523d6000602084013e610260565b606091505b50509050816000015173ffffffffffffffffffffffffffffffffffffffff167fec210685e1b8d2a4436b1e4b935de244c9257a7fe9789c4a6f168f21fa5d4f278360400151836040516102b4929190610cf8565b60405180910390a25050808060010191505061008a565b505050565b60006020528060005260406000206000915090505481565b60008082600001518360200151846040015160405160200161030c93929190610d37565b604051602081830303815290604052805190602001209050600061032f82610380565b905060006103418286606001516103b0565b9050846000015173ffffffffffffffffffffffffffffffffffffffff168173ffffffffffffffffffffffffffffffffffffffff16149350505050919050565b6000816040516020016103939190610df7565b604051602081830303815290604052805190602001209050919050565b6000806000806103c086866103dc565b9250925092506103d08282610438565b82935050505092915050565b600080600060418451036104215760008060006020870151925060408701519150606087015160001a90506104138882858561059c565b955095509550505050610431565b60006002855160001b9250925092505b9250925092565b6000600381111561044c5761044b610e1d565b5b82600381111561045f5761045e610e1d565b5b0315610598576001600381111561047957610478610e1d565b5b82600381111561048c5761048b610e1d565b5b036104c3576040517ff645eedf00000000000000000000000000000000000000000000000000000000815260040160405180910390fd5b600260038111156104d7576104d6610e1d565b5b8260038111156104ea576104e9610e1d565b5b0361052f578060001c6040517ffce698f700000000000000000000000000000000000000000000000000000000815260040161052691906107fa565b60405180910390fd5b60038081111561054257610541610e1d565b5b82600381111561055557610554610e1d565b5b0361059757806040517fd78bce0c00000000000000000000000000000000000000000000000000000000815260040161058e9190610e5b565b60405180910390fd5b5b5050565b60008060007f7fffffffffffffffffffffffffffffff5d576e7357a4501ddfe92f46681b20a08460001c11156105dc576000600385925092509250610686565b6000600188888888604051600081526020016040526040516106019493929190610e92565b6020604051602081039080840390855afa158015610623573d6000803e3d6000fd5b505050602060405103519050600073ffffffffffffffffffffffffffffffffffffffff168173ffffffffffffffffffffffffffffffffffffffff160361067757600060016000801b93509350935050610686565b8060008060001b935093509350505b9450945094915050565b6000604051905090565b600080fd5b600080fd5b600080fd5b600080fd5b600080fd5b60008083601f8401126106c9576106c86106a4565b5b8235905067ffffffffffffffff8111156106e6576106e56106a9565b5b602083019150836020820283011115610702576107016106ae565b5b9250929050565b600080602083850312156107205761071f61069a565b5b600083013567ffffffffffffffff81111561073e5761073d61069f565b5b61074a858286016106b3565b92509250509250929050565b600073ffffffffffffffffffffffffffffffffffffffff82169050919050565b600061078182610756565b9050919050565b61079181610776565b811461079c57600080fd5b50565b6000813590506107ae81610788565b92915050565b6000602082840312156107ca576107c961069a565b5b60006107d88482850161079f565b91505092915050565b6000819050919050565b6107f4816107e1565b82525050565b600060208201905061080f60008301846107eb565b92915050565b7f4e487b7100000000000000000000000000000000000000000000000000000000600052603260045260246000fd5b600080fd5b60008235600160800383360303811261086557610864610844565b5b80830191505092915050565b600080fd5b6000601f19601f8301169050919050565b7f4e487b7100000000000000000000000000000000000000000000000000000000600052604160045260246000fd5b6108bf82610876565b810181811067ffffffffffffffff821117156108de576108dd610887565b5b80604052505050565b60006108f1610690565b90506108fd82826108b6565b919050565b600080fd5b610910816107e1565b811461091b57600080fd5b50565b60008135905061092d81610907565b92915050565b600080fd5b600067ffffffffffffffff82111561095357610952610887565b5b61095c82610876565b9050602081019050919050565b82818337600083830152505050565b600061098b61098684610938565b6108e7565b9050828152602081018484840111156109a7576109a6610933565b5b6109b2848285610969565b509392505050565b600082601f8301126109cf576109ce6106a4565b5b81356109df848260208601610978565b91505092915050565b6000608082840312156109fe576109fd610871565b5b610a0860806108e7565b90506000610a188482850161079f565b6000830152506020610a2c8482850161091e565b602083015250604082013567ffffffffffffffff811115610a5057610a4f610902565b5b610a5c848285016109ba565b604083015250606082013567ffffffffffffffff811115610a8057610a7f610902565b5b610a8c848285016109ba565b60608301525092915050565b6000610aa436836109e8565b9050919050565b600082825260208201905092915050565b7f496e76616c6964207369676e6174757265000000000000000000000000000000600082015250565b6000610af2601183610aab565b9150610afd82610abc565b602082019050919050565b60006020820190508181036000830152610b2181610ae5565b9050919050565b7f496e76616c6964206e6f6e636500000000000000000000000000000000000000600082015250565b6000610b5e600d83610aab565b9150610b6982610b28565b602082019050919050565b60006020820190508181036000830152610b8d81610b51565b9050919050565b7f4e487b7100000000000000000000000000000000000000000000000000000000600052601160045260246000fd5b6000610bce826107e1565b91507fffffffffffffffffffffffffffffffffffffffffffffffffffffffffffffffff8203610c0057610bff610b94565b5b600182019050919050565b600081519050919050565b600081905092915050565b60005b83811015610c3f578082015181840152602081019050610c24565b60008484015250505050565b6000610c5682610c0b565b610c608185610c16565b9350610c70818560208601610c21565b80840191505092915050565b6000610c888284610c4b565b915081905092915050565b600082825260208201905092915050565b6000610caf82610c0b565b610cb98185610c93565b9350610cc9818560208601610c21565b610cd281610876565b840191505092915050565b60008115159050919050565b610cf281610cdd565b82525050565b60006040820190508181036000830152610d128185610ca4565b9050610d216020830184610ce9565b9392505050565b610d3181610776565b82525050565b6000606082019050610d4c6000830186610d28565b610d5960208301856107eb565b8181036040830152610d6b8184610ca4565b9050949350505050565b600081905092915050565b7f19457468657265756d205369676e6564204d6573736167653a0a333200000000600082015250565b6000610db6601c83610d75565b9150610dc182610d80565b601c82019050919050565b6000819050919050565b6000819050919050565b610df1610dec82610dcc565b610dd6565b82525050565b6000610e0282610da9565b9150610e0e8284610de0565b60208201915081905092915050565b7f4e487b7100000000000000000000000000000000000000000000000000000000600052602160045260246000fd5b610e5581610dcc565b82525050565b6000602082019050610e706000830184610e4c565b92915050565b600060ff82169050919050565b610e8c81610e76565b82525050565b6000608082019050610ea76000830187610e4c565b610eb46020830186610e83565b610ec16040830185610e4c565b610ece6060830184610e4c565b9594505050505056fea2646970667358221220931f1a6ef77b87ce761826df00036b37c0715cb91f5d2c824459b175fe6f73bb64736f6c63430008180033",
  "linkReferences": {},
  "deployedLinkReferences": {}
}