{
  "_format": "hh-sol-artifact-1",
  "contractName": "ERC4337Wallet",
  "sourceName": "contracts/ERC4337Wallet.sol",
  "abi": [
    {
      "inputs": [
        {
          "internalType": "address",
          "name": "_entryPoint",
          "type": "address"
        }
      ],
      "stateMutability": "nonpayable",
      "type": "constructor"
    },
    {
      "inputs": [
        {
          "internalType": "address",
          "name": "owner",
          "type": "address"
        }
      ],
      "name": "OwnableInvalidOwner",
      "type": "error"
    },
    {
      "inputs": [
        {
          "internalType": "address",
          "name": "account",
          "type": "address"
        }
      ],
      "name": "OwnableUnauthorizedAccount",
      "type": "error"
    },
    {
      "anonymous": false,
      "inputs": [
        {
          "indexed": true,
          "internalType": "address",
          "name": "dest",
          "type": "address"
        },
        {
          "indexed": false,
          "internalType": "uint256",
          "name": "value",
          "type": "uint256"
        },
        {
          "indexed": false,
          "internalType": "bytes",
          "name": "data",
          "type": "bytes"
        },
        {
          "indexed": false,
          "internalType": "bool",
          "name": "success",
          "type": "bool"
        }
      ],
      "name": "AccountExecuted",
      "type": "event"
    },
    {
      "anonymous": false,
      "inputs": [
        {
          "indexed": true,
          "internalType": "address",
          "name": "previousOwner",
          "type": "address"
        },
        {
          "indexed": true,
          "internalType": "address",
          "name": "newOwner",
          "type": "address"
        }
      ],
      "name": "OwnershipTransferred",
      "type": "event"
    },
    {
      "inputs": [],
      "name": "entryPoint",
      "outputs": [
        {
          "internalType": "address",
          "name": "",
          "type": "address"
        }
      ],
      "stateMutability": "view",
      "type": "function"
    },
    {
      "inputs": [
        {
          "internalType": "address",
          "name": "dest",
          "type": "address"
        },
        {
          "internalType": "uint256",
          "name": "value",
          "type": "uint256"
        },
        {
          "internalType": "bytes",
          "name": "data",
          "type": "bytes"
        }
      ],
      "name": "execute",
      "outputs": [],
      "stateMutability": "nonpayable",
      "type": "function"
    },
    {
      "inputs": [],
      "name": "owner",
      "outputs": [
        {
          "internalType": "address",
          "name": "",
          "type": "address"
        }
      ],
      "stateMutability": "view",
      "type": "function"
    },
    {
      "inputs": [],
      "name": "renounceOwnership",
      "outputs": [],
      "stateMutability": "nonpayable",
      "type": "function"
    },
    {
      "inputs": [
        {
          "internalType": "address",
          "name": "newOwner",
          "type": "address"
        }
      ],
      "name": "transferOwnership",
      "outputs": [],
      "stateMutability": "nonpayable",
      "type": "function"
    },
    {
      "inputs": [
        {
          "internalType": "address",
          "name": "_entryPoint",
          "type": "address"
        }
      ],
      "name": "updateEntryPoint",
      "outputs": [],
      "stateMutability": "nonpayable",
      "type": "function"
    },
    {
      "stateMutability": "payable",
      "type": "receive"
    }
  ],
  "bytecode": "0x608060405234801561001057600080fd5b50604051610a46380380610a4683398181016040528101906100329190610223565b33600073ffffffffffffffffffffffffffffffffffffffff168173ffffffffffffffffffffffffffffffffffffffff16036100a55760006040517f1e4fbdf700000000000000000000000000000000000000000000000000000000815260040161009c919061025f565b60405180910390fd5b6100b4816100fc60201b60201c565b5080600160006101000a81548173ffffffffffffffffffffffffffffffffffffffff021916908373ffffffffffffffffffffffffffffffffffffffff1602179055505061027a565b60008060009054906101000a900473ffffffffffffffffffffffffffffffffffffffff169050816000806101000a81548173ffffffffffffffffffffffffffffffffffffffff021916908373ffffffffffffffffffffffffffffffffffffffff1602179055508173ffffffffffffffffffffffffffffffffffffffff168173ffffffffffffffffffffffffffffffffffffffff167f8be0079c531659141344cd1fd0a4f28419497f9722a3daafe3b4186f6b6457e060405160405180910390a35050565b600080fd5b600073ffffffffffffffffffffffffffffffffffffffff82169050919050565b60006101f0826101c5565b9050919050565b610200816101e5565b811461020b57600080fd5b50565b60008151905061021d816101f7565b92915050565b600060208284031215610239576102386101c0565b5b60006102478482850161020e565b91505092915050565b610259816101e5565b82525050565b60006020820190506102746000830184610250565b92915050565b6107bd806102896000396000f3fe6080604052600436106100595760003560e01c80631b71bb6e14610065578063715018a61461008e5780638da5cb5b146100a5578063b0d691fe146100d0578063b61d27f6146100fb578063f2fde38b1461012457610060565b3661006057005b600080fd5b34801561007157600080fd5b5061008c60048036038101906100879190610510565b61014d565b005b34801561009a57600080fd5b506100a3610199565b005b3480156100b157600080fd5b506100ba6101ad565b6040516100c7919061054c565b60405180910390f35b3480156100dc57600080fd5b506100e56101d6565b6040516100f2919061054c565b60405180910390f35b34801561010757600080fd5b50610122600480360381019061011d9190610602565b6101fc565b005b34801561013057600080fd5b5061014b60048036038101906101469190610510565b6102cf565b005b610155610355565b80600160006101000a81548173ffffffffffffffffffffffffffffffffffffffff021916908373ffffffffffffffffffffffffffffffffffffffff16021790555050565b6101a1610355565b6101ab60006103dc565b565b60008060009054906101000a900473ffffffffffffffffffffffffffffffffffffffff16905090565b600160009054906101000a900473ffffffffffffffffffffffffffffffffffffffff1681565b610204610355565b60008473ffffffffffffffffffffffffffffffffffffffff1684848460405161022e9291906106b5565b60006040518083038185875af1925050503d806000811461026b576040519150601f19603f3d011682016040523d82523d6000602084013e610270565b606091505b505090508473ffffffffffffffffffffffffffffffffffffffff167f5dbc5c76327209cb06bd458833fcb276411dedb4be8b7adf8a442a04d74f9250858585856040516102c09493929190610747565b60405180910390a25050505050565b6102d7610355565b600073ffffffffffffffffffffffffffffffffffffffff168173ffffffffffffffffffffffffffffffffffffffff16036103495760006040517f1e4fbdf7000000000000000000000000000000000000000000000000000000008152600401610340919061054c565b60405180910390fd5b610352816103dc565b50565b61035d6104a0565b73ffffffffffffffffffffffffffffffffffffffff1661037b6101ad565b73ffffffffffffffffffffffffffffffffffffffff16146103da5761039e6104a0565b6040517f118cdaa70000000000000000000000000000000000000000000000000000000081526004016103d1919061054c565b60405180910390fd5b565b60008060009054906101000a900473ffffffffffffffffffffffffffffffffffffffff169050816000806101000a81548173ffffffffffffffffffffffffffffffffffffffff021916908373ffffffffffffffffffffffffffffffffffffffff1602179055508173ffffffffffffffffffffffffffffffffffffffff168173ffffffffffffffffffffffffffffffffffffffff167f8be0079c531659141344cd1fd0a4f28419497f9722a3daafe3b4186f6b6457e060405160405180910390a35050565b600033905090565b600080fd5b600080fd5b600073ffffffffffffffffffffffffffffffffffffffff82169050919050565b60006104dd826104b2565b9050919050565b6104ed816104d2565b81146104f857600080fd5b50565b60008135905061050a816104e4565b92915050565b600060208284031215610526576105256104a8565b5b6000610534848285016104fb565b91505092915050565b610546816104d2565b82525050565b6000602082019050610561600083018461053d565b92915050565b6000819050919050565b61057a81610567565b811461058557600080fd5b50565b60008135905061059781610571565b92915050565b600080fd5b600080fd5b600080fd5b60008083601f8401126105c2576105c161059d565b5b8235905067ffffffffffffffff8111156105df576105de6105a2565b5b6020830191508360018202830111156105fb576105fa6105a7565b5b9250929050565b6000806000806060858703121561061c5761061b6104a8565b5b600061062a878288016104fb565b945050602061063b87828801610588565b935050604085013567ffffffffffffffff81111561065c5761065b6104ad565b5b610668878288016105ac565b925092505092959194509250565b600081905092915050565b82818337600083830152505050565b600061069c8385610676565b93506106a9838584610681565b82840190509392505050565b60006106c2828486610690565b91508190509392505050565b6106d781610567565b82525050565b600082825260208201905092915050565b6000601f19601f8301169050919050565b600061070b83856106dd565b9350610718838584610681565b610721836106ee565b840190509392505050565b60008115159050919050565b6107418161072c565b82525050565b600060608201905061075c60008301876106ce565b818103602083015261076f8185876106ff565b905061077e6040830184610738565b9594505050505056fea2646970667358221220e2f83a098444709554186b9611c3419a7ee39ac8fa4b6130d0249f388488a56464736f6c63430008180033",
  "linkReferences": {},
  "deployedLinkReferences": {}
}