{
  "_format": "hh-sol-artifact-1",
  "contractName": "teste",
  "sourceName": "contracts/teste.sol",
  "abi": [
    {
      "inputs": [],
      "stateMutability": "nonpayable",
      "type": "constructor"
    },
    {
      "inputs": [
        {
          "internalType": "address",
          "name": "spender",
          "type": "address"
        },
        {
          "internalType": "uint256",
          "name": "allowance",
          "type": "uint256"
        },
        {
          "internalType": "uint256",
          "name": "needed",
          "type": "uint256"
        }
      ],
      "name": "ERC20InsufficientAllowance",
      "type": "error"
    },
    {
      "inputs": [
        {
          "internalType": "address",
          "name": "sender",
          "type": "address"
        },
        {
          "internalType": "uint256",
          "name": "balance",
          "type": "uint256"
        },
        {
          "internalType": "uint256",
          "name": "needed",
          "type": "uint256"
        }
      ],
      "name": "ERC20InsufficientBalance",
      "type": "error"
    },
    {
      "inputs": [
        {
          "internalType": "address",
          "name": "approver",
          "type": "address"
        }
      ],
      "name": "ERC20InvalidApprover",
      "type": "error"
    },
    {
      "inputs": [
        {
          "internalType": "address",
          "name": "receiver",
          "type": "address"
        }
      ],
      "name": "ERC20InvalidReceiver",
      "type": "error"
    },
    {
      "inputs": [
        {
          "internalType": "address",
          "name": "sender",
          "type": "address"
        }
      ],
      "name": "ERC20InvalidSender",
      "type": "error"
    },
    {
      "inputs": [
        {
          "internalType": "address",
          "name": "spender",
          "type": "address"
        }
      ],
      "name": "ERC20InvalidSpender",
      "type": "error"
    },
    {
      "inputs": [],
      "name": "EnforcedPause",
      "type": "error"
    },
    {
      "inputs": [],
      "name": "ExpectedPause",
      "type": "error"
    },
    {
      "inputs": [],
      "name": "InvalidInitialization",
      "type": "error"
    },
    {
      "inputs": [],
      "name": "NotInitializing",
      "type": "error"
    },
    {
      "inputs": [
        {
          "internalType": "address",
          "name": "owner",
          "type": "address"
        }
      ],
      "name": "OwnableInvalidOwner",
      "type": "error"
    },
    {
      "inputs": [
        {
          "internalType": "address",
          "name": "account",
          "type": "address"
        }
      ],
      "name": "OwnableUnauthorizedAccount",
      "type": "error"
    },
    {
      "anonymous": false,
      "inputs": [
        {
          "indexed": true,
          "internalType": "address",
          "name": "owner",
          "type": "address"
        },
        {
          "indexed": true,
          "internalType": "address",
          "name": "spender",
          "type": "address"
        },
        {
          "indexed": false,
          "internalType": "uint256",
          "name": "value",
          "type": "uint256"
        }
      ],
      "name": "Approval",
      "type": "event"
    },
    {
      "anonymous": false,
      "inputs": [
        {
          "indexed": false,
          "internalType": "uint64",
          "name": "version",
          "type": "uint64"
        }
      ],
      "name": "Initialized",
      "type": "event"
    },
    {
      "anonymous": false,
      "inputs": [
        {
          "indexed": true,
          "internalType": "address",
          "name": "previousOwner",
          "type": "address"
        },
        {
          "indexed": true,
          "internalType": "address",
          "name": "newOwner",
          "type": "address"
        }
      ],
      "name": "OwnershipTransferred",
      "type": "event"
    },
    {
      "anonymous": false,
      "inputs": [
        {
          "indexed": false,
          "internalType": "address",
          "name": "account",
          "type": "address"
        }
      ],
      "name": "Paused",
      "type": "event"
    },
    {
      "anonymous": false,
      "inputs": [
        {
          "indexed": true,
          "internalType": "address",
          "name": "to",
          "type": "address"
        },
        {
          "indexed": false,
          "internalType": "uint256",
          "name": "amount",
          "type": "uint256"
        }
      ],
      "name": "TokensMinted",
      "type": "event"
    },
    {
      "anonymous": false,
      "inputs": [
        {
          "indexed": true,
          "internalType": "address",
          "name": "from",
          "type": "address"
        },
        {
          "indexed": true,
          "internalType": "address",
          "name": "to",
          "type": "address"
        },
        {
          "indexed": false,
          "internalType": "uint256",
          "name": "value",
          "type": "uint256"
        }
      ],
      "name": "Transfer",
      "type": "event"
    },
    {
      "anonymous": false,
      "inputs": [
        {
          "indexed": false,
          "internalType": "address",
          "name": "account",
          "type": "address"
        }
      ],
      "name": "Unpaused",
      "type": "event"
    },
    {
      "inputs": [
        {
          "internalType": "address",
          "name": "owner",
          "type": "address"
        },
        {
          "internalType": "address",
          "name": "spender",
          "type": "address"
        }
      ],
      "name": "allowance",
      "outputs": [
        {
          "internalType": "uint256",
          "name": "",
          "type": "uint256"
        }
      ],
      "stateMutability": "view",
      "type": "function"
    },
    {
      "inputs": [
        {
          "internalType": "address",
          "name": "spender",
          "type": "address"
        },
        {
          "internalType": "uint256",
          "name": "value",
          "type": "uint256"
        }
      ],
      "name": "approve",
      "outputs": [
        {
          "internalType": "bool",
          "name": "",
          "type": "bool"
        }
      ],
      "stateMutability": "nonpayable",
      "type": "function"
    },
    {
      "inputs": [
        {
          "internalType": "address",
          "name": "account",
          "type": "address"
        }
      ],
      "name": "balanceOf",
      "outputs": [
        {
          "internalType": "uint256",
          "name": "",
          "type": "uint256"
        }
      ],
      "stateMutability": "view",
      "type": "function"
    },
    {
      "inputs": [
        {
          "internalType": "uint256",
          "name": "value",
          "type": "uint256"
        }
      ],
      "name": "burn",
      "outputs": [],
      "stateMutability": "nonpayable",
      "type": "function"
    },
    {
      "inputs": [
        {
          "internalType": "address",
          "name": "account",
          "type": "address"
        },
        {
          "internalType": "uint256",
          "name": "value",
          "type": "uint256"
        }
      ],
      "name": "burnFrom",
      "outputs": [],
      "stateMutability": "nonpayable",
      "type": "function"
    },
    {
      "inputs": [],
      "name": "decimals",
      "outputs": [
        {
          "internalType": "uint8",
          "name": "",
          "type": "uint8"
        }
      ],
      "stateMutability": "view",
      "type": "function"
    },
    {
      "inputs": [
        {
          "internalType": "address",
          "name": "initialOwner",
          "type": "address"
        }
      ],
      "name": "initialize",
      "outputs": [],
      "stateMutability": "nonpayable",
      "type": "function"
    },
    {
      "inputs": [
        {
          "internalType": "address",
          "name": "to",
          "type": "address"
        },
        {
          "internalType": "uint256",
          "name": "amount",
          "type": "uint256"
        }
      ],
      "name": "mint",
      "outputs": [],
      "stateMutability": "nonpayable",
      "type": "function"
    },
    {
      "inputs": [],
      "name": "name",
      "outputs": [
        {
          "internalType": "string",
          "name": "",
          "type": "string"
        }
      ],
      "stateMutability": "view",
      "type": "function"
    },
    {
      "inputs": [],
      "name": "owner",
      "outputs": [
        {
          "internalType": "address",
          "name": "",
          "type": "address"
        }
      ],
      "stateMutability": "view",
      "type": "function"
    },
    {
      "inputs": [],
      "name": "pause",
      "outputs": [],
      "stateMutability": "nonpayable",
      "type": "function"
    },
    {
      "inputs": [],
      "name": "paused",
      "outputs": [
        {
          "internalType": "bool",
          "name": "",
          "type": "bool"
        }
      ],
      "stateMutability": "view",
      "type": "function"
    },
    {
      "inputs": [],
      "name": "renounceOwnership",
      "outputs": [],
      "stateMutability": "nonpayable",
      "type": "function"
    },
    {
      "inputs": [],
      "name": "symbol",
      "outputs": [
        {
          "internalType": "string",
          "name": "",
          "type": "string"
        }
      ],
      "stateMutability": "view",
      "type": "function"
    },
    {
      "inputs": [],
      "name": "totalSupply",
      "outputs": [
        {
          "internalType": "uint256",
          "name": "",
          "type": "uint256"
        }
      ],
      "stateMutability": "view",
      "type": "function"
    },
    {
      "inputs": [
        {
          "internalType": "address",
          "name": "to",
          "type": "address"
        },
        {
          "internalType": "uint256",
          "name": "value",
          "type": "uint256"
        }
      ],
      "name": "transfer",
      "outputs": [
        {
          "internalType": "bool",
          "name": "",
          "type": "bool"
        }
      ],
      "stateMutability": "nonpayable",
      "type": "function"
    },
    {
      "inputs": [
        {
          "internalType": "address",
          "name": "from",
          "type": "address"
        },
        {
          "internalType": "address",
          "name": "to",
          "type": "address"
        },
        {
          "internalType": "uint256",
          "name": "value",
          "type": "uint256"
        }
      ],
      "name": "transferFrom",
      "outputs": [
        {
          "internalType": "bool",
          "name": "",
          "type": "bool"
        }
      ],
      "stateMutability": "nonpayable",
      "type": "function"
    },
    {
      "inputs": [
        {
          "internalType": "address",
          "name": "newOwner",
          "type": "address"
        }
      ],
      "name": "transferOwnership",
      "outputs": [],
      "stateMutability": "nonpayable",
      "type": "function"
    },
    {
      "inputs": [],
      "name": "unpause",
      "outputs": [],
      "stateMutability": "nonpayable",
      "type": "function"
    }
  ],
  "bytecode": "0x60806040523480156200001157600080fd5b50620000226200002860201b60201c565b6200019c565b60006200003a6200013260201b60201c565b90508060000160089054906101000a900460ff161562000086576040517ff92ee8a900000000000000000000000000000000000000000000000000000000815260040160405180910390fd5b67ffffffffffffffff80168160000160009054906101000a900467ffffffffffffffff1667ffffffffffffffff16146200012f5767ffffffffffffffff8160000160006101000a81548167ffffffffffffffff021916908367ffffffffffffffff1602179055507fc7f505b2f371ae2175ee4913f4499e1f2633a7b5936321eed1cdaeb6115181d267ffffffffffffffff6040516200012691906200017f565b60405180910390a15b50565b60007ff0c57e16840df040f15088dc2f81fe391c3923bec73e23a9662efc9c229c6a00905090565b600067ffffffffffffffff82169050919050565b62000179816200015a565b82525050565b60006020820190506200019660008301846200016e565b92915050565b611f5b80620001ac6000396000f3fe608060405234801561001057600080fd5b50600436106101215760003560e01c806370a08231116100ad57806395d89b411161007157806395d89b41146102be578063a9059cbb146102dc578063c4d66de81461030c578063dd62ed3e14610328578063f2fde38b1461035857610121565b806370a0823114610240578063715018a61461027057806379cc67901461027a5780638456cb59146102965780638da5cb5b146102a057610121565b8063313ce567116100f4578063313ce567146101c25780633f4ba83a146101e057806340c10f19146101ea57806342966c68146102065780635c975abb1461022257610121565b806306fdde0314610126578063095ea7b31461014457806318160ddd1461017457806323b872dd14610192575b600080fd5b61012e610374565b60405161013b91906116ab565b60405180910390f35b61015e60048036038101906101599190611766565b610415565b60405161016b91906117c1565b60405180910390f35b61017c610438565b60405161018991906117eb565b60405180910390f35b6101ac60048036038101906101a79190611806565b610450565b6040516101b991906117c1565b60405180910390f35b6101ca61047f565b6040516101d79190611875565b60405180910390f35b6101e8610488565b005b61020460048036038101906101ff9190611766565b61049a565b005b610220600480360381019061021b9190611890565b6104fe565b005b61022a610512565b60405161023791906117c1565b60405180910390f35b61025a600480360381019061025591906118bd565b610537565b60405161026791906117eb565b60405180910390f35b61027861058e565b005b610294600480360381019061028f9190611766565b6105a2565b005b61029e6105c2565b005b6102a86105d4565b6040516102b591906118f9565b60405180910390f35b6102c661060c565b6040516102d391906116ab565b60405180910390f35b6102f660048036038101906102f19190611766565b6106ad565b60405161030391906117c1565b60405180910390f35b610326600480360381019061032191906118bd565b6106d0565b005b610342600480360381019061033d9190611914565b61090d565b60405161034f91906117eb565b60405180910390f35b610372600480360381019061036d91906118bd565b6109a2565b005b60606000610380610a28565b905080600301805461039190611983565b80601f01602080910402602001604051908101604052809291908181526020018280546103bd90611983565b801561040a5780601f106103df5761010080835404028352916020019161040a565b820191906000526020600020905b8154815290600101906020018083116103ed57829003601f168201915b505050505091505090565b600080610420610a50565b905061042d818585610a58565b600191505092915050565b600080610443610a28565b9050806002015491505090565b60008061045b610a50565b9050610468858285610a6a565b610473858585610afe565b60019150509392505050565b60006012905090565b610490610bf2565b610498610c79565b565b6104a2610bf2565b6104ac8282610ceb565b8173ffffffffffffffffffffffffffffffffffffffff167f3f2c9d57c068687834f0de942a9babb9e5acab57d516d3480a3c16ee165a4273826040516104f291906117eb565b60405180910390a25050565b61050f610509610a50565b82610d6d565b50565b60008061051d610def565b90508060000160009054906101000a900460ff1691505090565b600080610542610a28565b90508060000160008473ffffffffffffffffffffffffffffffffffffffff1673ffffffffffffffffffffffffffffffffffffffff16815260200190815260200160002054915050919050565b610596610bf2565b6105a06000610e17565b565b6105b4826105ae610a50565b83610a6a565b6105be8282610d6d565b5050565b6105ca610bf2565b6105d2610eee565b565b6000806105df610f60565b90508060000160009054906101000a900473ffffffffffffffffffffffffffffffffffffffff1691505090565b60606000610618610a28565b905080600401805461062990611983565b80601f016020809104026020016040519081016040528092919081815260200182805461065590611983565b80156106a25780601f10610677576101008083540402835291602001916106a2565b820191906000526020600020905b81548152906001019060200180831161068557829003601f168201915b505050505091505090565b6000806106b8610a50565b90506106c5818585610afe565b600191505092915050565b60006106da610f88565b905060008160000160089054906101000a900460ff1615905060008260000160009054906101000a900467ffffffffffffffff1690506000808267ffffffffffffffff161480156107285750825b9050600060018367ffffffffffffffff1614801561075d575060003073ffffffffffffffffffffffffffffffffffffffff163b145b90508115801561076b575080155b156107a2576040517ff92ee8a900000000000000000000000000000000000000000000000000000000815260040160405180910390fd5b60018560000160006101000a81548167ffffffffffffffff021916908367ffffffffffffffff16021790555083156107f25760018560000160086101000a81548160ff0219169083151502179055505b6108666040518060400160405280600581526020017f74657374650000000000000000000000000000000000000000000000000000008152506040518060400160405280600381526020017f5453540000000000000000000000000000000000000000000000000000000000815250610fb0565b61086e610fc6565b610876610fd0565b61087f86610fe2565b6108a93361088b61047f565b600a6108979190611b16565b6103e86108a49190611b61565b610ceb565b83156109055760008560000160086101000a81548160ff0219169083151502179055507fc7f505b2f371ae2175ee4913f4499e1f2633a7b5936321eed1cdaeb6115181d260016040516108fc9190611bfc565b60405180910390a15b505050505050565b600080610918610a28565b90508060010160008573ffffffffffffffffffffffffffffffffffffffff1673ffffffffffffffffffffffffffffffffffffffff16815260200190815260200160002060008473ffffffffffffffffffffffffffffffffffffffff1673ffffffffffffffffffffffffffffffffffffffff1681526020019081526020016000205491505092915050565b6109aa610bf2565b600073ffffffffffffffffffffffffffffffffffffffff168173ffffffffffffffffffffffffffffffffffffffff1603610a1c5760006040517f1e4fbdf7000000000000000000000000000000000000000000000000000000008152600401610a1391906118f9565b60405180910390fd5b610a2581610e17565b50565b60007f52c63247e1f47db19d5ce0460030c497f067ca4cebf71ba98eeadabe20bace00905090565b600033905090565b610a658383836001610ff6565b505050565b6000610a76848461090d565b90507fffffffffffffffffffffffffffffffffffffffffffffffffffffffffffffffff8114610af85781811015610ae8578281836040517ffb8f41b2000000000000000000000000000000000000000000000000000000008152600401610adf93929190611c17565b60405180910390fd5b610af784848484036000610ff6565b5b50505050565b600073ffffffffffffffffffffffffffffffffffffffff168373ffffffffffffffffffffffffffffffffffffffff1603610b705760006040517f96c6fd1e000000000000000000000000000000000000000000000000000000008152600401610b6791906118f9565b60405180910390fd5b600073ffffffffffffffffffffffffffffffffffffffff168273ffffffffffffffffffffffffffffffffffffffff1603610be25760006040517fec442f05000000000000000000000000000000000000000000000000000000008152600401610bd991906118f9565b60405180910390fd5b610bed8383836111dc565b505050565b610bfa610a50565b73ffffffffffffffffffffffffffffffffffffffff16610c186105d4565b73ffffffffffffffffffffffffffffffffffffffff1614610c7757610c3b610a50565b6040517f118cdaa7000000000000000000000000000000000000000000000000000000008152600401610c6e91906118f9565b60405180910390fd5b565b610c816111ec565b6000610c8b610def565b905060008160000160006101000a81548160ff0219169083151502179055507f5db9ee0a495bf2e6ff9c91a7834c1ba4fdd244a5e8aa4e537bd38aeae4b073aa610cd3610a50565b604051610ce091906118f9565b60405180910390a150565b600073ffffffffffffffffffffffffffffffffffffffff168273ffffffffffffffffffffffffffffffffffffffff1603610d5d5760006040517fec442f05000000000000000000000000000000000000000000000000000000008152600401610d5491906118f9565b60405180910390fd5b610d69600083836111dc565b5050565b600073ffffffffffffffffffffffffffffffffffffffff168273ffffffffffffffffffffffffffffffffffffffff1603610ddf5760006040517f96c6fd1e000000000000000000000000000000000000000000000000000000008152600401610dd691906118f9565b60405180910390fd5b610deb826000836111dc565b5050565b60007fcd5ed15c6e187e77e9aee88184c21f4f2182ab5827cb3b7e07fbedcd63f03300905090565b6000610e21610f60565b905060008160000160009054906101000a900473ffffffffffffffffffffffffffffffffffffffff169050828260000160006101000a81548173ffffffffffffffffffffffffffffffffffffffff021916908373ffffffffffffffffffffffffffffffffffffffff1602179055508273ffffffffffffffffffffffffffffffffffffffff168173ffffffffffffffffffffffffffffffffffffffff167f8be0079c531659141344cd1fd0a4f28419497f9722a3daafe3b4186f6b6457e060405160405180910390a3505050565b610ef661122c565b6000610f00610def565b905060018160000160006101000a81548160ff0219169083151502179055507f62e78cea01bee320cd4e420270b5ea74000d11b0c9f74754ebdbfc544b05a258610f48610a50565b604051610f5591906118f9565b60405180910390a150565b60007f9016d09d72d40fdae2fd8ceac6b6234c7706214fd39c1cd1e609a0528c199300905090565b60007ff0c57e16840df040f15088dc2f81fe391c3923bec73e23a9662efc9c229c6a00905090565b610fb861126d565b610fc282826112ad565b5050565b610fce61126d565b565b610fd861126d565b610fe06112ea565b565b610fea61126d565b610ff38161131e565b50565b6000611000610a28565b9050600073ffffffffffffffffffffffffffffffffffffffff168573ffffffffffffffffffffffffffffffffffffffff16036110745760006040517fe602df0500000000000000000000000000000000000000000000000000000000815260040161106b91906118f9565b60405180910390fd5b600073ffffffffffffffffffffffffffffffffffffffff168473ffffffffffffffffffffffffffffffffffffffff16036110e65760006040517f94280d620000000000000000000000000000000000000000000000000000000081526004016110dd91906118f9565b60405180910390fd5b828160010160008773ffffffffffffffffffffffffffffffffffffffff1673ffffffffffffffffffffffffffffffffffffffff16815260200190815260200160002060008673ffffffffffffffffffffffffffffffffffffffff1673ffffffffffffffffffffffffffffffffffffffff1681526020019081526020016000208190555081156111d5578373ffffffffffffffffffffffffffffffffffffffff168573ffffffffffffffffffffffffffffffffffffffff167f8c5be1e5ebec7d5bd14f71427d1e84f3dd0314c0f7b2291e5b200ac8c7c3b925856040516111cc91906117eb565b60405180910390a35b5050505050565b6111e78383836113a4565b505050565b6111f4610512565b61122a576040517f8dfc202b00000000000000000000000000000000000000000000000000000000815260040160405180910390fd5b565b611234610512565b1561126b576040517fd93c066500000000000000000000000000000000000000000000000000000000815260040160405180910390fd5b565b6112756113bc565b6112ab576040517fd7e6bcf800000000000000000000000000000000000000000000000000000000815260040160405180910390fd5b565b6112b561126d565b60006112bf610a28565b9050828160030190816112d29190611e1f565b50818160040190816112e49190611e1f565b50505050565b6112f261126d565b60006112fc610def565b905060008160000160006101000a81548160ff02191690831515021790555050565b61132661126d565b600073ffffffffffffffffffffffffffffffffffffffff168173ffffffffffffffffffffffffffffffffffffffff16036113985760006040517f1e4fbdf700000000000000000000000000000000000000000000000000000000815260040161138f91906118f9565b60405180910390fd5b6113a181610e17565b50565b6113ac61122c565b6113b78383836113dc565b505050565b60006113c6610f88565b60000160089054906101000a900460ff16905090565b60006113e6610a28565b9050600073ffffffffffffffffffffffffffffffffffffffff168473ffffffffffffffffffffffffffffffffffffffff160361143c57818160020160008282546114309190611ef1565b92505081905550611515565b60008160000160008673ffffffffffffffffffffffffffffffffffffffff1673ffffffffffffffffffffffffffffffffffffffff168152602001908152602001600020549050828110156114cb578481846040517fe450d38c0000000000000000000000000000000000000000000000000000000081526004016114c293929190611c17565b60405180910390fd5b8281038260000160008773ffffffffffffffffffffffffffffffffffffffff1673ffffffffffffffffffffffffffffffffffffffff16815260200190815260200160002081905550505b600073ffffffffffffffffffffffffffffffffffffffff168373ffffffffffffffffffffffffffffffffffffffff1603611560578181600201600082825403925050819055506115b0565b818160000160008573ffffffffffffffffffffffffffffffffffffffff1673ffffffffffffffffffffffffffffffffffffffff168152602001908152602001600020600082825401925050819055505b8273ffffffffffffffffffffffffffffffffffffffff168473ffffffffffffffffffffffffffffffffffffffff167fddf252ad1be2c89b69c2b068fc378daa952ba7f163c4a11628f55a4df523b3ef8460405161160d91906117eb565b60405180910390a350505050565b600081519050919050565b600082825260208201905092915050565b60005b8381101561165557808201518184015260208101905061163a565b60008484015250505050565b6000601f19601f8301169050919050565b600061167d8261161b565b6116878185611626565b9350611697818560208601611637565b6116a081611661565b840191505092915050565b600060208201905081810360008301526116c58184611672565b905092915050565b600080fd5b600073ffffffffffffffffffffffffffffffffffffffff82169050919050565b60006116fd826116d2565b9050919050565b61170d816116f2565b811461171857600080fd5b50565b60008135905061172a81611704565b92915050565b6000819050919050565b61174381611730565b811461174e57600080fd5b50565b6000813590506117608161173a565b92915050565b6000806040838503121561177d5761177c6116cd565b5b600061178b8582860161171b565b925050602061179c85828601611751565b9150509250929050565b60008115159050919050565b6117bb816117a6565b82525050565b60006020820190506117d660008301846117b2565b92915050565b6117e581611730565b82525050565b600060208201905061180060008301846117dc565b92915050565b60008060006060848603121561181f5761181e6116cd565b5b600061182d8682870161171b565b935050602061183e8682870161171b565b925050604061184f86828701611751565b9150509250925092565b600060ff82169050919050565b61186f81611859565b82525050565b600060208201905061188a6000830184611866565b92915050565b6000602082840312156118a6576118a56116cd565b5b60006118b484828501611751565b91505092915050565b6000602082840312156118d3576118d26116cd565b5b60006118e18482850161171b565b91505092915050565b6118f3816116f2565b82525050565b600060208201905061190e60008301846118ea565b92915050565b6000806040838503121561192b5761192a6116cd565b5b60006119398582860161171b565b925050602061194a8582860161171b565b9150509250929050565b7f4e487b7100000000000000000000000000000000000000000000000000000000600052602260045260246000fd5b6000600282049050600182168061199b57607f821691505b6020821081036119ae576119ad611954565b5b50919050565b7f4e487b7100000000000000000000000000000000000000000000000000000000600052601160045260246000fd5b60008160011c9050919050565b6000808291508390505b6001851115611a3a57808604811115611a1657611a156119b4565b5b6001851615611a255780820291505b8081029050611a33856119e3565b94506119fa565b94509492505050565b600082611a535760019050611b0f565b81611a615760009050611b0f565b8160018114611a775760028114611a8157611ab0565b6001915050611b0f565b60ff841115611a9357611a926119b4565b5b8360020a915084821115611aaa57611aa96119b4565b5b50611b0f565b5060208310610133831016604e8410600b8410161715611ae55782820a905083811115611ae057611adf6119b4565b5b611b0f565b611af284848460016119f0565b92509050818404811115611b0957611b086119b4565b5b81810290505b9392505050565b6000611b2182611730565b9150611b2c83611859565b9250611b597fffffffffffffffffffffffffffffffffffffffffffffffffffffffffffffffff8484611a43565b905092915050565b6000611b6c82611730565b9150611b7783611730565b9250828202611b8581611730565b91508282048414831517611b9c57611b9b6119b4565b5b5092915050565b6000819050919050565b600067ffffffffffffffff82169050919050565b6000819050919050565b6000611be6611be1611bdc84611ba3565b611bc1565b611bad565b9050919050565b611bf681611bcb565b82525050565b6000602082019050611c116000830184611bed565b92915050565b6000606082019050611c2c60008301866118ea565b611c3960208301856117dc565b611c4660408301846117dc565b949350505050565b7f4e487b7100000000000000000000000000000000000000000000000000000000600052604160045260246000fd5b60008190508160005260206000209050919050565b60006020601f8301049050919050565b600082821b905092915050565b600060088302611cdf7fffffffffffffffffffffffffffffffffffffffffffffffffffffffffffffffff82611ca2565b611ce98683611ca2565b95508019841693508086168417925050509392505050565b6000611d1c611d17611d1284611730565b611bc1565b611730565b9050919050565b6000819050919050565b611d3683611d01565b611d4a611d4282611d23565b848454611caf565b825550505050565b600090565b611d5f611d52565b611d6a818484611d2d565b505050565b5b81811015611d8e57611d83600082611d57565b600181019050611d70565b5050565b601f821115611dd357611da481611c7d565b611dad84611c92565b81016020851015611dbc578190505b611dd0611dc885611c92565b830182611d6f565b50505b505050565b600082821c905092915050565b6000611df660001984600802611dd8565b1980831691505092915050565b6000611e0f8383611de5565b9150826002028217905092915050565b611e288261161b565b67ffffffffffffffff811115611e4157611e40611c4e565b5b611e4b8254611983565b611e56828285611d92565b600060209050601f831160018114611e895760008415611e77578287015190505b611e818582611e03565b865550611ee9565b601f198416611e9786611c7d565b60005b82811015611ebf57848901518255600182019150602085019450602081019050611e9a565b86831015611edc5784890151611ed8601f891682611de5565b8355505b6001600288020188555050505b505050505050565b6000611efc82611730565b9150611f0783611730565b9250828201905080821115611f1f57611f1e6119b4565b5b9291505056fea26469706673582212202c299d741f20bb4abd4c55984149131d46dcc7e38df9c8ed8e19e6a1bf34324e64736f6c63430008180033",
  "linkReferences": {},
  "deployedLinkReferences": {}
}